{
  "_format": "hh-sol-artifact-1",
  "contractName": "MyEpicNFT",
  "sourceName": "contracts/MyEpicNFT.sol",
  "abi": [
    {
      "inputs": [],
      "stateMutability": "nonpayable",
      "type": "constructor"
    },
    {
      "anonymous": false,
      "inputs": [
        {
          "indexed": true,
          "internalType": "address",
          "name": "owner",
          "type": "address"
        },
        {
          "indexed": true,
          "internalType": "address",
          "name": "approved",
          "type": "address"
        },
        {
          "indexed": true,
          "internalType": "uint256",
          "name": "tokenId",
          "type": "uint256"
        }
      ],
      "name": "Approval",
      "type": "event"
    },
    {
      "anonymous": false,
      "inputs": [
        {
          "indexed": true,
          "internalType": "address",
          "name": "owner",
          "type": "address"
        },
        {
          "indexed": true,
          "internalType": "address",
          "name": "operator",
          "type": "address"
        },
        {
          "indexed": false,
          "internalType": "bool",
          "name": "approved",
          "type": "bool"
        }
      ],
      "name": "ApprovalForAll",
      "type": "event"
    },
    {
      "anonymous": false,
      "inputs": [
        {
          "indexed": false,
          "internalType": "address",
          "name": "sender",
          "type": "address"
        },
        {
          "indexed": false,
          "internalType": "uint256",
          "name": "tokenId",
          "type": "uint256"
        }
      ],
      "name": "NewEpicNFTMinted",
      "type": "event"
    },
    {
      "anonymous": false,
      "inputs": [
        {
          "indexed": true,
          "internalType": "address",
          "name": "from",
          "type": "address"
        },
        {
          "indexed": true,
          "internalType": "address",
          "name": "to",
          "type": "address"
        },
        {
          "indexed": true,
          "internalType": "uint256",
          "name": "tokenId",
          "type": "uint256"
        }
      ],
      "name": "Transfer",
      "type": "event"
    },
    {
      "inputs": [
        {
          "internalType": "address",
          "name": "to",
          "type": "address"
        },
        {
          "internalType": "uint256",
          "name": "tokenId",
          "type": "uint256"
        }
      ],
      "name": "approve",
      "outputs": [],
      "stateMutability": "nonpayable",
      "type": "function"
    },
    {
      "inputs": [
        {
          "internalType": "address",
          "name": "owner",
          "type": "address"
        }
      ],
      "name": "balanceOf",
      "outputs": [
        {
          "internalType": "uint256",
          "name": "",
          "type": "uint256"
        }
      ],
      "stateMutability": "view",
      "type": "function"
    },
    {
      "inputs": [
        {
          "internalType": "uint256",
          "name": "tokenId",
          "type": "uint256"
        }
      ],
      "name": "getApproved",
      "outputs": [
        {
          "internalType": "address",
          "name": "",
          "type": "address"
        }
      ],
      "stateMutability": "view",
      "type": "function"
    },
    {
      "inputs": [
        {
          "internalType": "address",
          "name": "owner",
          "type": "address"
        },
        {
          "internalType": "address",
          "name": "operator",
          "type": "address"
        }
      ],
      "name": "isApprovedForAll",
      "outputs": [
        {
          "internalType": "bool",
          "name": "",
          "type": "bool"
        }
      ],
      "stateMutability": "view",
      "type": "function"
    },
    {
      "inputs": [],
      "name": "makeNFT",
      "outputs": [],
      "stateMutability": "nonpayable",
      "type": "function"
    },
    {
      "inputs": [],
      "name": "name",
      "outputs": [
        {
          "internalType": "string",
          "name": "",
          "type": "string"
        }
      ],
      "stateMutability": "view",
      "type": "function"
    },
    {
      "inputs": [
        {
          "internalType": "uint256",
          "name": "tokenId",
          "type": "uint256"
        }
      ],
      "name": "ownerOf",
      "outputs": [
        {
          "internalType": "address",
          "name": "",
          "type": "address"
        }
      ],
      "stateMutability": "view",
      "type": "function"
    },
    {
      "inputs": [
        {
          "internalType": "uint256",
          "name": "tokenId",
          "type": "uint256"
        }
      ],
      "name": "pickRandomFirstWord",
      "outputs": [
        {
          "internalType": "string",
          "name": "",
          "type": "string"
        }
      ],
      "stateMutability": "view",
      "type": "function"
    },
    {
      "inputs": [
        {
          "internalType": "uint256",
          "name": "tokenId",
          "type": "uint256"
        }
      ],
      "name": "pickRandomSecondWord",
      "outputs": [
        {
          "internalType": "string",
          "name": "",
          "type": "string"
        }
      ],
      "stateMutability": "view",
      "type": "function"
    },
    {
      "inputs": [
        {
          "internalType": "uint256",
          "name": "tokenId",
          "type": "uint256"
        }
      ],
      "name": "pickRandomThirdWord",
      "outputs": [
        {
          "internalType": "string",
          "name": "",
          "type": "string"
        }
      ],
      "stateMutability": "view",
      "type": "function"
    },
    {
      "inputs": [
        {
          "internalType": "address",
          "name": "from",
          "type": "address"
        },
        {
          "internalType": "address",
          "name": "to",
          "type": "address"
        },
        {
          "internalType": "uint256",
          "name": "tokenId",
          "type": "uint256"
        }
      ],
      "name": "safeTransferFrom",
      "outputs": [],
      "stateMutability": "nonpayable",
      "type": "function"
    },
    {
      "inputs": [
        {
          "internalType": "address",
          "name": "from",
          "type": "address"
        },
        {
          "internalType": "address",
          "name": "to",
          "type": "address"
        },
        {
          "internalType": "uint256",
          "name": "tokenId",
          "type": "uint256"
        },
        {
          "internalType": "bytes",
          "name": "_data",
          "type": "bytes"
        }
      ],
      "name": "safeTransferFrom",
      "outputs": [],
      "stateMutability": "nonpayable",
      "type": "function"
    },
    {
      "inputs": [
        {
          "internalType": "address",
          "name": "operator",
          "type": "address"
        },
        {
          "internalType": "bool",
          "name": "approved",
          "type": "bool"
        }
      ],
      "name": "setApprovalForAll",
      "outputs": [],
      "stateMutability": "nonpayable",
      "type": "function"
    },
    {
      "inputs": [
        {
          "internalType": "bytes4",
          "name": "interfaceId",
          "type": "bytes4"
        }
      ],
      "name": "supportsInterface",
      "outputs": [
        {
          "internalType": "bool",
          "name": "",
          "type": "bool"
        }
      ],
      "stateMutability": "view",
      "type": "function"
    },
    {
      "inputs": [],
      "name": "symbol",
      "outputs": [
        {
          "internalType": "string",
          "name": "",
          "type": "string"
        }
      ],
      "stateMutability": "view",
      "type": "function"
    },
    {
      "inputs": [
        {
          "internalType": "uint256",
          "name": "tokenId",
          "type": "uint256"
        }
      ],
      "name": "tokenURI",
      "outputs": [
        {
          "internalType": "string",
          "name": "",
          "type": "string"
        }
      ],
      "stateMutability": "view",
      "type": "function"
    },
    {
      "inputs": [
        {
          "internalType": "address",
          "name": "from",
          "type": "address"
        },
        {
          "internalType": "address",
          "name": "to",
          "type": "address"
        },
        {
          "internalType": "uint256",
          "name": "tokenId",
          "type": "uint256"
        }
      ],
      "name": "transferFrom",
      "outputs": [],
      "stateMutability": "nonpayable",
      "type": "function"
    }
  ],
  "bytecode": "0x608060405260405180610160016040528061012f81526020016200414361012f91396008908051906020019062000038929190620006b9565b506040518060c001604052806040518060400160405280600981526020017f46616e746173746963000000000000000000000000000000000000000000000081525081526020016040518060400160405280600481526020017f457069630000000000000000000000000000000000000000000000000000000081525081526020016040518060400160405280600581526020017f4372617a7900000000000000000000000000000000000000000000000000000081525081526020016040518060400160405280600481526020017f57696c640000000000000000000000000000000000000000000000000000000081525081526020016040518060400160405280600a81526020017f54657272696679696e670000000000000000000000000000000000000000000081525081526020016040518060400160405280600481526020017f57696c64000000000000000000000000000000000000000000000000000000008152508152506009906006620001b69291906200074a565b506040518060c001604052806040518060400160405280600981526020017f48616d627572676572000000000000000000000000000000000000000000000081525081526020016040518060400160405280600581526020017f436f66666500000000000000000000000000000000000000000000000000000081525081526020016040518060400160405280600381526020017f546561000000000000000000000000000000000000000000000000000000000081525081526020016040518060400160405280600581526020017f50697a7a6100000000000000000000000000000000000000000000000000000081525081526020016040518060400160405280600381526020017f48616d000000000000000000000000000000000000000000000000000000000081525081526020016040518060400160405280600c81526020017f436869636b656e57696e67730000000000000000000000000000000000000000815250815250600a906006620003349291906200074a565b506040518060e001604052806040518060400160405280600581526020017f48414e474500000000000000000000000000000000000000000000000000000081525081526020016040518060400160405280600481526020017f5a454b450000000000000000000000000000000000000000000000000000000081525081526020016040518060400160405280600681526020017f4b5255474552000000000000000000000000000000000000000000000000000081525081526020016040518060400160405280600481526020017f4c4556490000000000000000000000000000000000000000000000000000000081525081526020016040518060400160405280600581526020017f41524d494e00000000000000000000000000000000000000000000000000000081525081526020016040518060400160405280600681526020017f4d494b415341000000000000000000000000000000000000000000000000000081525081526020016040518060400160405280600481526020017f4552454e00000000000000000000000000000000000000000000000000000000815250815250600b906007620004ed929190620007b1565b50348015620004fb57600080fd5b506040518060400160405280600881526020017f54686520496d70730000000000000000000000000000000000000000000000008152506040518060400160405280600381526020017f496d700000000000000000000000000000000000000000000000000000000000815250816000908051906020019062000580929190620006b9565b50806001908051906020019062000599929190620006b9565b505050620005e76040518060400160405280601981526020017f6d79206e667420636f6e74726163742074657374202121212100000000000000815250620005ed60201b620010be1760201c565b620009d2565b6200068d81604051602401620006049190620008e6565b6040516020818303038152906040527f41304fac000000000000000000000000000000000000000000000000000000007bffffffffffffffffffffffffffffffffffffffffffffffffffffffff19166020820180517bffffffffffffffffffffffffffffffffffffffffffffffffffffffff83818316178352505050506200069060201b60201c565b50565b60008151905060006a636f6e736f6c652e6c6f679050602083016000808483855afa5050505050565b828054620006c7906200095c565b90600052602060002090601f016020900481019282620006eb576000855562000737565b82601f106200070657805160ff191683800117855562000737565b8280016001018555821562000737579182015b828111156200073657825182559160200191906001019062000719565b5b50905062000746919062000818565b5090565b8280548282559060005260206000209081019282156200079e579160200282015b828111156200079d5782518290805190602001906200078c929190620006b9565b50916020019190600101906200076b565b5b509050620007ad919062000837565b5090565b82805482825590600052602060002090810192821562000805579160200282015b8281111562000804578251829080519060200190620007f3929190620006b9565b5091602001919060010190620007d2565b5b50905062000814919062000837565b5090565b5b808211156200083357600081600090555060010162000819565b5090565b5b808211156200085b57600081816200085191906200085f565b5060010162000838565b5090565b5080546200086d906200095c565b6000825580601f10620008815750620008a2565b601f016020900490600052602060002090810190620008a1919062000818565b5b50565b6000620008b2826200090a565b620008be818562000915565b9350620008d081856020860162000926565b620008db81620009c1565b840191505092915050565b60006020820190508181036000830152620009028184620008a5565b905092915050565b600081519050919050565b600082825260208201905092915050565b60005b838110156200094657808201518184015260208101905062000929565b8381111562000956576000848401525b50505050565b600060028204905060018216806200097557607f821691505b602082108114156200098c576200098b62000992565b5b50919050565b7f4e487b7100000000000000000000000000000000000000000000000000000000600052602260045260246000fd5b6000601f19601f8301169050919050565b61376180620009e26000396000f3fe608060405234801561001057600080fd5b506004361061010b5760003560e01c806370a08231116100a2578063b187301f11610071578063b187301f146102b6578063b88d4fde146102e6578063c575757a14610302578063c87b56dd14610332578063e985e9c5146103625761010b565b806370a082311461024257806395d89b4114610272578063a22cb46514610290578063b036b4bd146102ac5761010b565b806323b872dd116100de57806323b872dd146101aa5780632de38d68146101c657806342842e0e146101f65780636352211e146102125761010b565b806301ffc9a71461011057806306fdde0314610140578063081812fc1461015e578063095ea7b31461018e575b600080fd5b61012a6004803603810190610125919061249f565b610392565b6040516101379190612fd7565b60405180910390f35b610148610474565b6040516101559190612ff2565b60405180910390f35b610178600480360381019061017391906124f1565b610506565b6040516101859190612f47565b60405180910390f35b6101a860048036038101906101a39190612463565b61058b565b005b6101c460048036038101906101bf919061235d565b6106a3565b005b6101e060048036038101906101db91906124f1565b610703565b6040516101ed9190612ff2565b60405180910390f35b610210600480360381019061020b919061235d565b610821565b005b61022c600480360381019061022791906124f1565b610841565b6040516102399190612f47565b60405180910390f35b61025c600480360381019061025791906122f8565b6108f3565b6040516102699190613252565b60405180910390f35b61027a6109ab565b6040516102879190612ff2565b60405180910390f35b6102aa60048036038101906102a59190612427565b610a3d565b005b6102b4610a53565b005b6102d060048036038101906102cb91906124f1565b610c3a565b6040516102dd9190612ff2565b60405180910390f35b61030060048036038101906102fb91906123ac565b610d58565b005b61031c600480360381019061031791906124f1565b610dba565b6040516103299190612ff2565b60405180910390f35b61034c600480360381019061034791906124f1565b610ed8565b6040516103599190612ff2565b60405180910390f35b61037c60048036038101906103779190612321565b61102a565b6040516103899190612fd7565b60405180910390f35b60007f80ac58cd000000000000000000000000000000000000000000000000000000007bffffffffffffffffffffffffffffffffffffffffffffffffffffffff1916827bffffffffffffffffffffffffffffffffffffffffffffffffffffffff1916148061045d57507f5b5e139f000000000000000000000000000000000000000000000000000000007bffffffffffffffffffffffffffffffffffffffffffffffffffffffff1916827bffffffffffffffffffffffffffffffffffffffffffffffffffffffff1916145b8061046d575061046c82611157565b5b9050919050565b606060008054610483906134f1565b80601f01602080910402602001604051908101604052809291908181526020018280546104af906134f1565b80156104fc5780601f106104d1576101008083540402835291602001916104fc565b820191906000526020600020905b8154815290600101906020018083116104df57829003601f168201915b5050505050905090565b6000610511826111c1565b610550576040517f08c379a0000000000000000000000000000000000000000000000000000000008152600401610547906131b2565b60405180910390fd5b6004600083815260200190815260200160002060009054906101000a900473ffffffffffffffffffffffffffffffffffffffff169050919050565b600061059682610841565b90508073ffffffffffffffffffffffffffffffffffffffff168373ffffffffffffffffffffffffffffffffffffffff161415610607576040517f08c379a00000000000000000000000000000000000000000000000000000000081526004016105fe90613212565b60405180910390fd5b8073ffffffffffffffffffffffffffffffffffffffff1661062661122d565b73ffffffffffffffffffffffffffffffffffffffff16148061065557506106548161064f61122d565b61102a565b5b610694576040517f08c379a000000000000000000000000000000000000000000000000000000000815260040161068b906130f2565b60405180910390fd5b61069e8383611235565b505050565b6106b46106ae61122d565b826112ee565b6106f3576040517f08c379a00000000000000000000000000000000000000000000000000000000081526004016106ea90613232565b60405180910390fd5b6106fe8383836113cc565b505050565b6060600061073761071384611628565b6040516020016107239190612f03565b6040516020818303038152906040526117d5565b90506009805490508161074a919061356c565b905060098181548110610786577f4e487b7100000000000000000000000000000000000000000000000000000000600052603260045260246000fd5b90600052602060002001805461079b906134f1565b80601f01602080910402602001604051908101604052809291908181526020018280546107c7906134f1565b80156108145780601f106107e957610100808354040283529160200191610814565b820191906000526020600020905b8154815290600101906020018083116107f757829003601f168201915b5050505050915050919050565b61083c83838360405180602001604052806000815250610d58565b505050565b6000806002600084815260200190815260200160002060009054906101000a900473ffffffffffffffffffffffffffffffffffffffff169050600073ffffffffffffffffffffffffffffffffffffffff168173ffffffffffffffffffffffffffffffffffffffff1614156108ea576040517f08c379a00000000000000000000000000000000000000000000000000000000081526004016108e190613132565b60405180910390fd5b80915050919050565b60008073ffffffffffffffffffffffffffffffffffffffff168273ffffffffffffffffffffffffffffffffffffffff161415610964576040517f08c379a000000000000000000000000000000000000000000000000000000000815260040161095b90613112565b60405180910390fd5b600360008373ffffffffffffffffffffffffffffffffffffffff1673ffffffffffffffffffffffffffffffffffffffff168152602001908152602001600020549050919050565b6060600180546109ba906134f1565b80601f01602080910402602001604051908101604052809291908181526020018280546109e6906134f1565b8015610a335780601f10610a0857610100808354040283529160200191610a33565b820191906000526020600020905b815481529060010190602001808311610a1657829003601f168201915b5050505050905090565b610a4f610a4861122d565b8383611808565b5050565b6000610a5f6007611975565b90506000610a6c82610703565b90506000610a7983610c3a565b90506000610a8684610dba565b90506000838383604051602001610a9f93929190612e5e565b60405160208183030381529060405290506000600882604051602001610ac6929190612e8f565b60405160208183030381529060405290506000610b0b83610ae684611983565b604051602001610af7929190612ebe565b604051602081830303815290604052611983565b9050600081604051602001610b209190612f25565b6040516020818303038152906040529050610b6f6040518060400160405280601f81526020017f0a2d2d2d2d2d2d2d2d2d2d2d2d2d2d2d2d2d2d2d2d2d2d2d2d2d2d2d2d2d2d008152506110be565b610b78816110be565b610bb66040518060400160405280601f81526020017f0a2d2d2d2d2d2d2d2d2d2d2d2d2d2d2d2d2d2d2d2d2d2d2d2d2d2d2d2d2d2d008152506110be565b610bc03389611b22565b610bca8882611b40565b610bd46007611bb4565b610bf76040518060600160405280602581526020016136c7602591398933611bca565b7febb98688741ffa4c7589bf325de30cf7becb63de567842e1ccdb6cb949fdc82c3389604051610c28929190612fae565b60405180910390a15050505050505050565b60606000610c6e610c4a84611628565b604051602001610c5a9190612f03565b6040516020818303038152906040526117d5565b9050600a8054905081610c81919061356c565b9050600a8181548110610cbd577f4e487b7100000000000000000000000000000000000000000000000000000000600052603260045260246000fd5b906000526020600020018054610cd2906134f1565b80601f0160208091040260200160405190810160405280929190818152602001828054610cfe906134f1565b8015610d4b5780601f10610d2057610100808354040283529160200191610d4b565b820191906000526020600020905b815481529060010190602001808311610d2e57829003601f168201915b5050505050915050919050565b610d69610d6361122d565b836112ee565b610da8576040517f08c379a0000000000000000000000000000000000000000000000000000000008152600401610d9f90613232565b60405180910390fd5b610db484848484611c69565b50505050565b60606000610dee610dca84611628565b604051602001610dda9190612f03565b6040516020818303038152906040526117d5565b9050600b8054905081610e01919061356c565b9050600b8181548110610e3d577f4e487b7100000000000000000000000000000000000000000000000000000000600052603260045260246000fd5b906000526020600020018054610e52906134f1565b80601f0160208091040260200160405190810160405280929190818152602001828054610e7e906134f1565b8015610ecb5780601f10610ea057610100808354040283529160200191610ecb565b820191906000526020600020905b815481529060010190602001808311610eae57829003601f168201915b5050505050915050919050565b6060610ee3826111c1565b610f22576040517f08c379a0000000000000000000000000000000000000000000000000000000008152600401610f1990613192565b60405180910390fd5b6000600660008481526020019081526020016000208054610f42906134f1565b80601f0160208091040260200160405190810160405280929190818152602001828054610f6e906134f1565b8015610fbb5780601f10610f9057610100808354040283529160200191610fbb565b820191906000526020600020905b815481529060010190602001808311610f9e57829003601f168201915b505050505090506000610fcc611cc5565b9050600081511415610fe2578192505050611025565b600082511115611017578082604051602001610fff929190612e3a565b60405160208183030381529060405292505050611025565b61102084611cdc565b925050505b919050565b6000600560008473ffffffffffffffffffffffffffffffffffffffff1673ffffffffffffffffffffffffffffffffffffffff16815260200190815260200160002060008373ffffffffffffffffffffffffffffffffffffffff1673ffffffffffffffffffffffffffffffffffffffff16815260200190815260200160002060009054906101000a900460ff16905092915050565b611154816040516024016110d29190612ff2565b6040516020818303038152906040527f41304fac000000000000000000000000000000000000000000000000000000007bffffffffffffffffffffffffffffffffffffffffffffffffffffffff19166020820180517bffffffffffffffffffffffffffffffffffffffffffffffffffffffff8381831617835250505050611d83565b50565b60007f01ffc9a7000000000000000000000000000000000000000000000000000000007bffffffffffffffffffffffffffffffffffffffffffffffffffffffff1916827bffffffffffffffffffffffffffffffffffffffffffffffffffffffff1916149050919050565b60008073ffffffffffffffffffffffffffffffffffffffff166002600084815260200190815260200160002060009054906101000a900473ffffffffffffffffffffffffffffffffffffffff1673ffffffffffffffffffffffffffffffffffffffff1614159050919050565b600033905090565b816004600083815260200190815260200160002060006101000a81548173ffffffffffffffffffffffffffffffffffffffff021916908373ffffffffffffffffffffffffffffffffffffffff160217905550808273ffffffffffffffffffffffffffffffffffffffff166112a883610841565b73ffffffffffffffffffffffffffffffffffffffff167f8c5be1e5ebec7d5bd14f71427d1e84f3dd0314c0f7b2291e5b200ac8c7c3b92560405160405180910390a45050565b60006112f9826111c1565b611338576040517f08c379a000000000000000000000000000000000000000000000000000000000815260040161132f906130d2565b60405180910390fd5b600061134383610841565b90508073ffffffffffffffffffffffffffffffffffffffff168473ffffffffffffffffffffffffffffffffffffffff1614806113b257508373ffffffffffffffffffffffffffffffffffffffff1661139a84610506565b73ffffffffffffffffffffffffffffffffffffffff16145b806113c357506113c2818561102a565b5b91505092915050565b8273ffffffffffffffffffffffffffffffffffffffff166113ec82610841565b73ffffffffffffffffffffffffffffffffffffffff1614611442576040517f08c379a0000000000000000000000000000000000000000000000000000000008152600401611439906131d2565b60405180910390fd5b600073ffffffffffffffffffffffffffffffffffffffff168273ffffffffffffffffffffffffffffffffffffffff1614156114b2576040517f08c379a00000000000000000000000000000000000000000000000000000000081526004016114a990613092565b60405180910390fd5b6114bd838383611dac565b6114c8600082611235565b6001600360008573ffffffffffffffffffffffffffffffffffffffff1673ffffffffffffffffffffffffffffffffffffffff16815260200190815260200160002060008282546115189190613407565b925050819055506001600360008473ffffffffffffffffffffffffffffffffffffffff1673ffffffffffffffffffffffffffffffffffffffff168152602001908152602001600020600082825461156f9190613326565b92505081905550816002600083815260200190815260200160002060006101000a81548173ffffffffffffffffffffffffffffffffffffffff021916908373ffffffffffffffffffffffffffffffffffffffff160217905550808273ffffffffffffffffffffffffffffffffffffffff168473ffffffffffffffffffffffffffffffffffffffff167fddf252ad1be2c89b69c2b068fc378daa952ba7f163c4a11628f55a4df523b3ef60405160405180910390a4505050565b60606000821415611670576040518060400160405280600181526020017f300000000000000000000000000000000000000000000000000000000000000081525090506117d0565b600082905060005b600082146116a257808061168b90613523565b915050600a8261169b919061337c565b9150611678565b60008167ffffffffffffffff8111156116e4577f4e487b7100000000000000000000000000000000000000000000000000000000600052604160045260246000fd5b6040519080825280601f01601f1916602001820160405280156117165781602001600182028036833780820191505090505b5090505b600085146117c95760018261172f9190613407565b9150600a8561173e919061356c565b603061174a9190613326565b60f81b818381518110611786577f4e487b7100000000000000000000000000000000000000000000000000000000600052603260045260246000fd5b60200101907effffffffffffffffffffffffffffffffffffffffffffffffffffffffffffff1916908160001a905350600a856117c2919061337c565b945061171a565b8093505050505b919050565b6000816040516020016117e89190612e23565b6040516020818303038152906040528051906020012060001c9050919050565b8173ffffffffffffffffffffffffffffffffffffffff168373ffffffffffffffffffffffffffffffffffffffff161415611877576040517f08c379a000000000000000000000000000000000000000000000000000000000815260040161186e906130b2565b60405180910390fd5b80600560008573ffffffffffffffffffffffffffffffffffffffff1673ffffffffffffffffffffffffffffffffffffffff16815260200190815260200160002060008473ffffffffffffffffffffffffffffffffffffffff1673ffffffffffffffffffffffffffffffffffffffff16815260200190815260200160002060006101000a81548160ff0219169083151502179055508173ffffffffffffffffffffffffffffffffffffffff168373ffffffffffffffffffffffffffffffffffffffff167f17307eab39ab6107e8899845ad3d59bd9653f200f220920489ca2b5937696c31836040516119689190612fd7565b60405180910390a3505050565b600081600001549050919050565b60606000825114156119a657604051806020016040528060008152509050611b1d565b60006040518060600160405280604081526020016136ec60409139905060006003600285516119d59190613326565b6119df919061337c565b60046119eb91906133ad565b905060006020826119fc9190613326565b67ffffffffffffffff811115611a3b577f4e487b7100000000000000000000000000000000000000000000000000000000600052604160045260246000fd5b6040519080825280601f01601f191660200182016040528015611a6d5781602001600182028036833780820191505090505b509050818152600183018586518101602084015b81831015611adc576003830192508251603f8160121c168501518253600182019150603f81600c1c168501518253600182019150603f8160061c168501518253600182019150603f8116850151825360018201915050611a81565b600389510660018114611af65760028114611b0657611b11565b613d3d60f01b6002830352611b11565b603d60f81b60018303525b50505050508093505050505b919050565b611b3c828260405180602001604052806000815250611db1565b5050565b611b49826111c1565b611b88576040517f08c379a0000000000000000000000000000000000000000000000000000000008152600401611b7f90613152565b60405180910390fd5b80600660008481526020019081526020016000209080519060200190611baf929190612184565b505050565b6001816000016000828254019250508190555050565b611c64838383604051602401611be293929190613014565b6040516020818303038152906040527fe3849f79000000000000000000000000000000000000000000000000000000007bffffffffffffffffffffffffffffffffffffffffffffffffffffffff19166020820180517bffffffffffffffffffffffffffffffffffffffffffffffffffffffff8381831617835250505050611d83565b505050565b611c748484846113cc565b611c8084848484611e0c565b611cbf576040517f08c379a0000000000000000000000000000000000000000000000000000000008152600401611cb690613052565b60405180910390fd5b50505050565b606060405180602001604052806000815250905090565b6060611ce7826111c1565b611d26576040517f08c379a0000000000000000000000000000000000000000000000000000000008152600401611d1d906131f2565b60405180910390fd5b6000611d30611cc5565b90506000815111611d505760405180602001604052806000815250611d7b565b80611d5a84611628565b604051602001611d6b929190612e3a565b6040516020818303038152906040525b915050919050565b60008151905060006a636f6e736f6c652e6c6f679050602083016000808483855afa5050505050565b505050565b611dbb8383611fa3565b611dc86000848484611e0c565b611e07576040517f08c379a0000000000000000000000000000000000000000000000000000000008152600401611dfe90613052565b60405180910390fd5b505050565b6000611e2d8473ffffffffffffffffffffffffffffffffffffffff16612171565b15611f96578373ffffffffffffffffffffffffffffffffffffffff1663150b7a02611e5661122d565b8786866040518563ffffffff1660e01b8152600401611e789493929190612f62565b602060405180830381600087803b158015611e9257600080fd5b505af1925050508015611ec357506040513d601f19601f82011682018060405250810190611ec091906124c8565b60015b611f46573d8060008114611ef3576040519150601f19603f3d011682016040523d82523d6000602084013e611ef8565b606091505b50600081511415611f3e576040517f08c379a0000000000000000000000000000000000000000000000000000000008152600401611f3590613052565b60405180910390fd5b805181602001fd5b63150b7a0260e01b7bffffffffffffffffffffffffffffffffffffffffffffffffffffffff1916817bffffffffffffffffffffffffffffffffffffffffffffffffffffffff191614915050611f9b565b600190505b949350505050565b600073ffffffffffffffffffffffffffffffffffffffff168273ffffffffffffffffffffffffffffffffffffffff161415612013576040517f08c379a000000000000000000000000000000000000000000000000000000000815260040161200a90613172565b60405180910390fd5b61201c816111c1565b1561205c576040517f08c379a000000000000000000000000000000000000000000000000000000000815260040161205390613072565b60405180910390fd5b61206860008383611dac565b6001600360008473ffffffffffffffffffffffffffffffffffffffff1673ffffffffffffffffffffffffffffffffffffffff16815260200190815260200160002060008282546120b89190613326565b92505081905550816002600083815260200190815260200160002060006101000a81548173ffffffffffffffffffffffffffffffffffffffff021916908373ffffffffffffffffffffffffffffffffffffffff160217905550808273ffffffffffffffffffffffffffffffffffffffff16600073ffffffffffffffffffffffffffffffffffffffff167fddf252ad1be2c89b69c2b068fc378daa952ba7f163c4a11628f55a4df523b3ef60405160405180910390a45050565b600080823b905060008111915050919050565b828054612190906134f1565b90600052602060002090601f0160209004810192826121b257600085556121f9565b82601f106121cb57805160ff19168380011785556121f9565b828001600101855582156121f9579182015b828111156121f85782518255916020019190600101906121dd565b5b509050612206919061220a565b5090565b5b8082111561222357600081600090555060010161220b565b5090565b600061223a6122358461329e565b61326d565b90508281526020810184848401111561225257600080fd5b61225d8482856134af565b509392505050565b6000813590506122748161366a565b92915050565b60008135905061228981613681565b92915050565b60008135905061229e81613698565b92915050565b6000815190506122b381613698565b92915050565b600082601f8301126122ca57600080fd5b81356122da848260208601612227565b91505092915050565b6000813590506122f2816136af565b92915050565b60006020828403121561230a57600080fd5b600061231884828501612265565b91505092915050565b6000806040838503121561233457600080fd5b600061234285828601612265565b925050602061235385828601612265565b9150509250929050565b60008060006060848603121561237257600080fd5b600061238086828701612265565b935050602061239186828701612265565b92505060406123a2868287016122e3565b9150509250925092565b600080600080608085870312156123c257600080fd5b60006123d087828801612265565b94505060206123e187828801612265565b93505060406123f2878288016122e3565b925050606085013567ffffffffffffffff81111561240f57600080fd5b61241b878288016122b9565b91505092959194509250565b6000806040838503121561243a57600080fd5b600061244885828601612265565b92505060206124598582860161227a565b9150509250929050565b6000806040838503121561247657600080fd5b600061248485828601612265565b9250506020612495858286016122e3565b9150509250929050565b6000602082840312156124b157600080fd5b60006124bf8482850161228f565b91505092915050565b6000602082840312156124da57600080fd5b60006124e8848285016122a4565b91505092915050565b60006020828403121561250357600080fd5b6000612511848285016122e3565b91505092915050565b6125238161343b565b82525050565b6125328161344d565b82525050565b6000612543826132e3565b61254d81856132f9565b935061255d8185602086016134be565b61256681613659565b840191505092915050565b600061257c826132ee565b612586818561330a565b93506125968185602086016134be565b61259f81613659565b840191505092915050565b60006125b5826132ee565b6125bf818561331b565b93506125cf8185602086016134be565b80840191505092915050565b600081546125e8816134f1565b6125f2818661331b565b9450600182166000811461260d576001811461261e57612651565b60ff19831686528186019350612651565b612627856132ce565b60005b838110156126495781548189015260018201915060208101905061262a565b838801955050505b50505092915050565b600061266760328361330a565b91507f4552433732313a207472616e7366657220746f206e6f6e20455243373231526560008301527f63656976657220696d706c656d656e74657200000000000000000000000000006020830152604082019050919050565b60006126cd601c8361330a565b91507f4552433732313a20746f6b656e20616c7265616479206d696e746564000000006000830152602082019050919050565b600061270d60248361330a565b91507f4552433732313a207472616e7366657220746f20746865207a65726f2061646460008301527f72657373000000000000000000000000000000000000000000000000000000006020830152604082019050919050565b600061277360198361330a565b91507f4552433732313a20617070726f766520746f2063616c6c6572000000000000006000830152602082019050919050565b60006127b3602c8361330a565b91507f4552433732313a206f70657261746f7220717565727920666f72206e6f6e657860008301527f697374656e7420746f6b656e00000000000000000000000000000000000000006020830152604082019050919050565b6000612819600d8361331b565b91507f3c2f746578743e3c2f7376673e000000000000000000000000000000000000006000830152600d82019050919050565b600061285960538361331b565b91507f222c20226465736372697074696f6e223a202252616e646f6d20616f7420776960008301527f6c64206e616d6573206e6674222c2022696d616765223a2022646174613a696d60208301527f6167652f7376672b786d6c3b6261736536342c000000000000000000000000006040830152605382019050919050565b60006128e560388361330a565b91507f4552433732313a20617070726f76652063616c6c6572206973206e6f74206f7760008301527f6e6572206e6f7220617070726f76656420666f7220616c6c00000000000000006020830152604082019050919050565b600061294b602a8361330a565b91507f4552433732313a2062616c616e636520717565727920666f7220746865207a6560008301527f726f2061646472657373000000000000000000000000000000000000000000006020830152604082019050919050565b60006129b160298361330a565b91507f4552433732313a206f776e657220717565727920666f72206e6f6e657869737460008301527f656e7420746f6b656e00000000000000000000000000000000000000000000006020830152604082019050919050565b6000612a17602e8361330a565b91507f45524337323155524953746f726167653a2055524920736574206f66206e6f6e60008301527f6578697374656e7420746f6b656e0000000000000000000000000000000000006020830152604082019050919050565b6000612a7d60028361331b565b91507f227d0000000000000000000000000000000000000000000000000000000000006000830152600282019050919050565b6000612abd60208361330a565b91507f4552433732313a206d696e7420746f20746865207a65726f20616464726573736000830152602082019050919050565b6000612afd60318361330a565b91507f45524337323155524953746f726167653a2055524920717565727920666f722060008301527f6e6f6e6578697374656e7420746f6b656e0000000000000000000000000000006020830152604082019050919050565b6000612b63602c8361330a565b91507f4552433732313a20617070726f76656420717565727920666f72206e6f6e657860008301527f697374656e7420746f6b656e00000000000000000000000000000000000000006020830152604082019050919050565b6000612bc960298361330a565b91507f4552433732313a207472616e73666572206f6620746f6b656e2074686174206960008301527f73206e6f74206f776e00000000000000000000000000000000000000000000006020830152604082019050919050565b6000612c2f602f8361330a565b91507f4552433732314d657461646174613a2055524920717565727920666f72206e6f60008301527f6e6578697374656e7420746f6b656e00000000000000000000000000000000006020830152604082019050919050565b6000612c95600a8361331b565b91507f7b226e616d65223a2022000000000000000000000000000000000000000000006000830152600a82019050919050565b6000612cd560218361330a565b91507f4552433732313a20617070726f76616c20746f2063757272656e74206f776e6560008301527f72000000000000000000000000000000000000000000000000000000000000006020830152604082019050919050565b6000612d3b600a8361331b565b91507f46495253545f574f5244000000000000000000000000000000000000000000006000830152600a82019050919050565b6000612d7b601d8361331b565b91507f646174613a6170706c69636174696f6e2f6a736f6e3b6261736536342c0000006000830152601d82019050919050565b6000612dbb60318361330a565b91507f4552433732313a207472616e736665722063616c6c6572206973206e6f74206f60008301527f776e6572206e6f7220617070726f7665640000000000000000000000000000006020830152604082019050919050565b612e1d816134a5565b82525050565b6000612e2f82846125aa565b915081905092915050565b6000612e4682856125aa565b9150612e5282846125aa565b91508190509392505050565b6000612e6a82866125aa565b9150612e7682856125aa565b9150612e8282846125aa565b9150819050949350505050565b6000612e9b82856125db565b9150612ea782846125aa565b9150612eb28261280c565b91508190509392505050565b6000612ec982612c88565b9150612ed582856125aa565b9150612ee08261284c565b9150612eec82846125aa565b9150612ef782612a70565b91508190509392505050565b6000612f0e82612d2e565b9150612f1a82846125aa565b915081905092915050565b6000612f3082612d6e565b9150612f3c82846125aa565b915081905092915050565b6000602082019050612f5c600083018461251a565b92915050565b6000608082019050612f77600083018761251a565b612f84602083018661251a565b612f916040830185612e14565b8181036060830152612fa38184612538565b905095945050505050565b6000604082019050612fc3600083018561251a565b612fd06020830184612e14565b9392505050565b6000602082019050612fec6000830184612529565b92915050565b6000602082019050818103600083015261300c8184612571565b905092915050565b6000606082019050818103600083015261302e8186612571565b905061303d6020830185612e14565b61304a604083018461251a565b949350505050565b6000602082019050818103600083015261306b8161265a565b9050919050565b6000602082019050818103600083015261308b816126c0565b9050919050565b600060208201905081810360008301526130ab81612700565b9050919050565b600060208201905081810360008301526130cb81612766565b9050919050565b600060208201905081810360008301526130eb816127a6565b9050919050565b6000602082019050818103600083015261310b816128d8565b9050919050565b6000602082019050818103600083015261312b8161293e565b9050919050565b6000602082019050818103600083015261314b816129a4565b9050919050565b6000602082019050818103600083015261316b81612a0a565b9050919050565b6000602082019050818103600083015261318b81612ab0565b9050919050565b600060208201905081810360008301526131ab81612af0565b9050919050565b600060208201905081810360008301526131cb81612b56565b9050919050565b600060208201905081810360008301526131eb81612bbc565b9050919050565b6000602082019050818103600083015261320b81612c22565b9050919050565b6000602082019050818103600083015261322b81612cc8565b9050919050565b6000602082019050818103600083015261324b81612dae565b9050919050565b60006020820190506132676000830184612e14565b92915050565b6000604051905081810181811067ffffffffffffffff821117156132945761329361362a565b5b8060405250919050565b600067ffffffffffffffff8211156132b9576132b861362a565b5b601f19601f8301169050602081019050919050565b60008190508160005260206000209050919050565b600081519050919050565b600081519050919050565b600082825260208201905092915050565b600082825260208201905092915050565b600081905092915050565b6000613331826134a5565b915061333c836134a5565b9250827fffffffffffffffffffffffffffffffffffffffffffffffffffffffffffffffff038211156133715761337061359d565b5b828201905092915050565b6000613387826134a5565b9150613392836134a5565b9250826133a2576133a16135cc565b5b828204905092915050565b60006133b8826134a5565b91506133c3836134a5565b9250817fffffffffffffffffffffffffffffffffffffffffffffffffffffffffffffffff04831182151516156133fc576133fb61359d565b5b828202905092915050565b6000613412826134a5565b915061341d836134a5565b9250828210156134305761342f61359d565b5b828203905092915050565b600061344682613485565b9050919050565b60008115159050919050565b60007fffffffff0000000000000000000000000000000000000000000000000000000082169050919050565b600073ffffffffffffffffffffffffffffffffffffffff82169050919050565b6000819050919050565b82818337600083830152505050565b60005b838110156134dc5780820151818401526020810190506134c1565b838111156134eb576000848401525b50505050565b6000600282049050600182168061350957607f821691505b6020821081141561351d5761351c6135fb565b5b50919050565b600061352e826134a5565b91507fffffffffffffffffffffffffffffffffffffffffffffffffffffffffffffffff8214156135615761356061359d565b5b600182019050919050565b6000613577826134a5565b9150613582836134a5565b925082613592576135916135cc565b5b828206905092915050565b7f4e487b7100000000000000000000000000000000000000000000000000000000600052601160045260246000fd5b7f4e487b7100000000000000000000000000000000000000000000000000000000600052601260045260246000fd5b7f4e487b7100000000000000000000000000000000000000000000000000000000600052602260045260246000fd5b7f4e487b7100000000000000000000000000000000000000000000000000000000600052604160045260246000fd5b6000601f19601f8301169050919050565b6136738161343b565b811461367e57600080fd5b50565b61368a8161344d565b811461369557600080fd5b50565b6136a181613459565b81146136ac57600080fd5b50565b6136b8816134a5565b81146136c357600080fd5b5056fe416e204e465420772f20494420257320686173206265656e206d696e74656420746f2025734142434445464748494a4b4c4d4e4f505152535455565758595a6162636465666768696a6b6c6d6e6f707172737475767778797a303132333435363738392b2fa2646970667358221220be305c5f85cb64292477ce9235fec72f277c78a1983f6a93a23a2e3801abcb7864736f6c634300080000333c73766720786d6c6e733d27687474703a2f2f7777772e77332e6f72672f323030302f73766727207072657365727665417370656374526174696f3d27784d696e594d696e206d656574272076696577426f783d273020302033353020333530273e3c7374796c653e2e62617365207b2066696c6c3a2077686974653b20666f6e742d66616d696c793a2073657269663b20666f6e742d73697a653a20323470783b207d3c2f7374796c653e3c726563742077696474683d273130302527206865696768743d2731303025272066696c6c3d27626c61636b27202f3e3c7465787420783d273530252720793d273530252720636c6173733d27626173652720646f6d696e616e742d626173656c696e653d276d6964646c652720746578742d616e63686f723d276d6964646c65273e",
  "linkReferences": {},
  "deployedLinkReferences": {}
}